{
  "address": "0xa9a66184F3218118BE90AF719Baa66109d90FE23",
  "abi": [
    {
      "inputs": [
        {
          "internalType": "address",
          "name": "_wormhole",
          "type": "address"
        },
        {
          "internalType": "address",
          "name": "_tokenBridge",
          "type": "address"
        },
        {
          "internalType": "address",
          "name": "_wormholeRelayer",
          "type": "address"
        }
      ],
      "stateMutability": "nonpayable",
      "type": "constructor"
    },
    {
      "inputs": [
        {
          "internalType": "address",
          "name": "token",
          "type": "address"
        }
      ],
      "name": "SafeERC20FailedOperation",
      "type": "error"
    },
    {
      "anonymous": false,
      "inputs": [
        {
          "indexed": true,
          "internalType": "address",
          "name": "previousOwner",
          "type": "address"
        },
        {
          "indexed": true,
          "internalType": "address",
          "name": "newOwner",
          "type": "address"
        }
      ],
      "name": "OwnershipTransferred",
      "type": "event"
    },
    {
      "anonymous": false,
      "inputs": [
        {
          "indexed": false,
          "internalType": "address",
          "name": "sender",
          "type": "address"
        },
        {
          "indexed": false,
          "internalType": "uint16",
          "name": "sourceChain",
          "type": "uint16"
        },
        {
          "indexed": false,
          "internalType": "bytes32",
          "name": "sourceAddress",
          "type": "bytes32"
        }
      ],
      "name": "ReceiveMessage",
      "type": "event"
    },
    {
      "anonymous": false,
      "inputs": [
        {
          "indexed": true,
          "internalType": "address",
          "name": "token",
          "type": "address"
        },
        {
          "indexed": false,
          "internalType": "uint256",
          "name": "amount",
          "type": "uint256"
        }
      ],
      "name": "TransferToken",
      "type": "event"
    },
    {
      "inputs": [],
      "name": "CONSISTENCY_LEVEL",
      "outputs": [
        {
          "internalType": "uint8",
          "name": "",
          "type": "uint8"
        }
      ],
      "stateMutability": "view",
      "type": "function"
    },
    {
      "inputs": [],
      "name": "GAS_LIMIT",
      "outputs": [
        {
          "internalType": "uint256",
          "name": "",
          "type": "uint256"
        }
      ],
      "stateMutability": "view",
      "type": "function"
    },
    {
      "inputs": [],
      "name": "MESSAGE_TIME_OUT_SECONDS",
      "outputs": [
        {
          "internalType": "uint256",
          "name": "",
          "type": "uint256"
        }
      ],
      "stateMutability": "view",
      "type": "function"
    },
    {
      "inputs": [],
      "name": "circleIntegration",
      "outputs": [
        {
          "internalType": "contract ICircleIntegration",
          "name": "",
          "type": "address"
        }
      ],
      "stateMutability": "view",
      "type": "function"
    },
    {
      "inputs": [
        {
          "internalType": "bytes",
          "name": "encodedMessage",
          "type": "bytes"
        }
      ],
      "name": "decodePayload",
      "outputs": [
        {
          "components": [
            {
              "internalType": "uint8",
              "name": "payloadID",
              "type": "uint8"
            },
            {
              "internalType": "bytes32",
              "name": "recipient",
              "type": "bytes32"
            },
            {
              "internalType": "uint256",
              "name": "amount",
              "type": "uint256"
            }
          ],
          "internalType": "struct WormholeBridge.TokenTransfer",
          "name": "parsedMessage",
          "type": "tuple"
        }
      ],
      "stateMutability": "pure",
      "type": "function"
    },
    {
      "inputs": [],
      "name": "getMessageFee",
      "outputs": [
        {
          "internalType": "uint256",
          "name": "",
          "type": "uint256"
        }
      ],
      "stateMutability": "view",
      "type": "function"
    },
    {
      "inputs": [
        {
          "internalType": "bytes32",
          "name": "tokenAddress",
          "type": "bytes32"
        },
        {
          "internalType": "uint16",
          "name": "sourceChain",
          "type": "uint16"
        }
      ],
      "name": "getSourceAddress",
      "outputs": [
        {
          "internalType": "address",
          "name": "",
          "type": "address"
        }
      ],
      "stateMutability": "view",
      "type": "function"
    },
    {
      "inputs": [],
      "name": "getWeth",
      "outputs": [
        {
          "internalType": "contract IWETH",
          "name": "",
          "type": "address"
        }
      ],
      "stateMutability": "view",
      "type": "function"
    },
    {
      "inputs": [],
      "name": "getWormholeChainId",
      "outputs": [
        {
          "internalType": "uint16",
          "name": "",
          "type": "uint16"
        }
      ],
      "stateMutability": "view",
      "type": "function"
    },
    {
      "inputs": [],
      "name": "policy",
      "outputs": [
        {
          "internalType": "address",
          "name": "",
          "type": "address"
        }
      ],
      "stateMutability": "view",
      "type": "function"
    },
    {
      "inputs": [],
      "name": "pullPolicy",
      "outputs": [],
      "stateMutability": "nonpayable",
      "type": "function"
    },
    {
      "inputs": [
        {
          "internalType": "address",
          "name": "newPolicy_",
          "type": "address"
        }
      ],
      "name": "pushPolicy",
      "outputs": [],
      "stateMutability": "nonpayable",
      "type": "function"
    },
    {
      "inputs": [
        {
          "internalType": "uint16",
          "name": "targetChain",
          "type": "uint16"
        }
      ],
      "name": "quoteEVMDeliveryCost",
      "outputs": [
        {
          "internalType": "uint256",
          "name": "cost",
          "type": "uint256"
        }
      ],
      "stateMutability": "view",
      "type": "function"
    },
    {
      "inputs": [
        {
          "internalType": "bytes",
          "name": "_whMessage",
          "type": "bytes"
        }
      ],
      "name": "receiveSolanaMessage",
      "outputs": [],
      "stateMutability": "payable",
      "type": "function"
    },
    {
      "inputs": [
        {
          "internalType": "bytes",
          "name": "payload",
          "type": "bytes"
        },
        {
          "internalType": "bytes[]",
          "name": "",
          "type": "bytes[]"
        },
        {
          "internalType": "bytes32",
          "name": "sourceAddress",
          "type": "bytes32"
        },
        {
          "internalType": "uint16",
          "name": "sourceChain",
          "type": "uint16"
        },
        {
          "internalType": "bytes32",
          "name": "",
          "type": "bytes32"
        }
      ],
      "name": "receiveWormholeMessages",
      "outputs": [],
      "stateMutability": "payable",
      "type": "function"
    },
    {
      "inputs": [
        {
          "internalType": "bytes",
          "name": "encodedVM",
          "type": "bytes"
        }
      ],
      "name": "redeemTransferWithPayload",
      "outputs": [],
      "stateMutability": "nonpayable",
      "type": "function"
    },
    {
      "inputs": [
        {
          "internalType": "uint16",
          "name": "sourceChain",
          "type": "uint16"
        },
        {
          "internalType": "bytes32",
          "name": "sourceAddress",
          "type": "bytes32"
        }
      ],
      "name": "registerSender",
      "outputs": [],
      "stateMutability": "nonpayable",
      "type": "function"
    },
    {
      "inputs": [],
      "name": "relayer",
      "outputs": [
        {
          "internalType": "contract IWormholeRelayer",
          "name": "",
          "type": "address"
        }
      ],
      "stateMutability": "view",
      "type": "function"
    },
    {
      "inputs": [],
      "name": "renouncePolicy",
      "outputs": [],
      "stateMutability": "nonpayable",
      "type": "function"
    },
    {
      "inputs": [
        {
          "internalType": "address",
          "name": "_bettingToken",
          "type": "address"
        },
        {
          "internalType": "uint256",
          "name": "_amount",
          "type": "uint256"
        },
        {
          "internalType": "uint256",
          "name": "_marketId",
          "type": "uint256"
        },
        {
          "internalType": "uint256",
          "name": "_answerId",
          "type": "uint256"
        },
        {
          "internalType": "uint256",
          "name": "_bettingKey",
          "type": "uint256"
        },
        {
          "internalType": "uint16",
          "name": "targetChain",
          "type": "uint16"
        },
        {
          "internalType": "address",
          "name": "targetAddress",
          "type": "address"
        }
      ],
      "name": "sendMessageToEvm",
      "outputs": [],
      "stateMutability": "payable",
      "type": "function"
    },
    {
      "inputs": [
        {
          "internalType": "address",
          "name": "_bettingToken",
          "type": "address"
        },
        {
          "internalType": "uint64",
          "name": "_amount",
          "type": "uint64"
        },
        {
          "internalType": "uint64",
          "name": "_marketId",
          "type": "uint64"
        },
        {
          "internalType": "uint64",
          "name": "_answerId",
          "type": "uint64"
        }
      ],
      "name": "sendMessageToSolana",
      "outputs": [
        {
          "internalType": "uint64",
          "name": "sequence",
          "type": "uint64"
        }
      ],
      "stateMutability": "payable",
      "type": "function"
    },
    {
      "inputs": [
        {
          "internalType": "address",
          "name": "_circleIntegration",
          "type": "address"
        }
      ],
      "name": "setCCTP",
      "outputs": [],
      "stateMutability": "nonpayable",
      "type": "function"
    },
    {
      "inputs": [],
      "name": "tokenBridge",
      "outputs": [
        {
          "internalType": "contract ITokenBridge",
          "name": "",
          "type": "address"
        }
      ],
      "stateMutability": "view",
      "type": "function"
    },
    {
      "inputs": [],
      "name": "totalLocked",
      "outputs": [
        {
          "internalType": "uint256",
          "name": "",
          "type": "uint256"
        }
      ],
      "stateMutability": "view",
      "type": "function"
    },
    {
      "inputs": [
        {
          "internalType": "address",
          "name": "_recipient",
          "type": "address"
        },
        {
          "internalType": "address",
          "name": "_bettingToken",
          "type": "address"
        },
        {
          "internalType": "uint64",
          "name": "_amount",
          "type": "uint64"
        },
        {
          "internalType": "uint16",
          "name": "_targetChain",
          "type": "uint16"
        },
        {
          "internalType": "bytes32",
          "name": "_targetAddress",
          "type": "bytes32"
        }
      ],
      "name": "transferCrossChain",
      "outputs": [],
      "stateMutability": "payable",
      "type": "function"
    },
    {
      "inputs": [],
      "name": "wormhole",
      "outputs": [
        {
          "internalType": "contract IWormhole",
          "name": "",
          "type": "address"
        }
      ],
      "stateMutability": "view",
      "type": "function"
    }
  ],
  "transactionHash": "0x8d9773ba171136558f640388a2d79aaa432431c383e841927fa15bba23e0a02e",
  "args": [
    "0x6b9C8671cdDC8dEab9c719bB87cBd3e782bA6a35",
    "0xC7A204bDBFe983FCD8d8E61D02b475D4073fF97e",
    "0x7B1bD7a6b4E61c2a123AC6BC2cbfC614437D0470"
  ],
  "numDeployments": 2,
  "solcInputHash": "ff6ef1b443202fc62e51df8425e9a50b",
  "bytecode": "0x60e0604052600180546001600160c01b0316905534801561001f57600080fd5b50604051612d8e380380612d8e83398101604081905261003e91610121565b600080546001600160a01b0319163390811782556040519091907f8be0079c531659141344cd1fd0a4f28419497f9722a3daafe3b4186f6b6457e0908290a36001600160a01b0383166100ac5760405162461bcd60e51b81526004016100a390610164565b60405180910390fd5b6001600160a01b0380841660805282166100d85760405162461bcd60e51b81526004016100a390610164565b6001600160a01b0391821660a0521660c052506001805463ffffffff60a01b191690556000600455610180565b80516001600160a01b038116811461011c57600080fd5b919050565b60008060006060848603121561013657600080fd5b61013f84610105565b925061014d60208501610105565b915061015b60408501610105565b90509250925092565b6020808252600290820152615a4160f01b604082015260600190565b60805160a05160c051612b6161022d6000396000818161035701528181611013015281816111cd015281816112bd015261139e01526000818161041c0152818161052f015281816105f1015281816106cd0152818161083f0152610eb301526000818161038b015281816104af015281816109d901528181610aeb01528181610c2801528181610dcd01528181610f88015281816114280152818161164201526119740152612b616000f3fe6080604052600436106101315760003560e01c80630505c8c914610136578063091d2788146101665780630963d30e1461018b578063107c279f146101ad578063197c6e77146101c25780632ec9c883146102075780632f43988014610232578063342dc1e514610252578063354b606a146102725780634316dcd3146102855780634fd686c81461029a578063529dca32146102c157806356891412146102d45780635beede08146102ea5780635f2934d3146102ff578063757f3e721461031257806378af9972146103325780638406c0791461034557806384acd1bb14610379578063a15ad077146103ad578063a4b23980146103cd578063b850509a146103e2578063c6328a461461040a578063db04e81d1461043e578063dd6522aa1461045e578063e9fa31621461047e575b600080fd5b34801561014257600080fd5b506000546001600160a01b03165b60405161015d9190611d0f565b60405180910390f35b34801561017257600080fd5b5061017d620f424081565b60405190815260200161015d565b34801561019757600080fd5b506101ab6101a6366004611e54565b610495565b005b3480156101b957600080fd5b5061015061083b565b3480156101ce57600080fd5b506101e26101dd366004611e54565b6108c4565b60408051825160ff16815260208084015190820152918101519082015260600161015d565b61021a610215366004611ebd565b6109d4565b6040516001600160401b03909116815260200161015d565b34801561023e57600080fd5b506101ab61024d366004611f19565b610d01565b34801561025e57600080fd5b506101ab61026d366004611f5d565b610d88565b6101ab610280366004611f89565b610dc9565b34801561029157600080fd5b5061017d610f84565b3480156102a657600080fd5b506102af60c881565b60405160ff909116815260200161015d565b6101ab6102cf366004612010565b611008565b3480156102e057600080fd5b5061017d60045481565b3480156102f657600080fd5b506101ab61114d565b6101ab61030d366004612101565b6111b3565b34801561031e57600080fd5b5061017d61032d366004612173565b611384565b6101ab610340366004612190565b611421565b34801561035157600080fd5b506101507f000000000000000000000000000000000000000000000000000000000000000081565b34801561038557600080fd5b506101507f000000000000000000000000000000000000000000000000000000000000000081565b3480156103b957600080fd5b506101ab6103c8366004611f19565b61185d565b3480156103d957600080fd5b506101ab61190e565b3480156103ee57600080fd5b506103f7611970565b60405161ffff909116815260200161015d565b34801561041657600080fd5b506101507f000000000000000000000000000000000000000000000000000000000000000081565b34801561044a57600080fd5b50610150610459366004612202565b6119f4565b34801561046a57600080fd5b50600254610150906001600160a01b031681565b34801561048a57600080fd5b5061017d6202a30081565b60405163a9e1189360e01b81526000906001600160a01b037f0000000000000000000000000000000000000000000000000000000000000000169063a9e11893906104e4908590600401612282565b600060405180830381865afa158015610501573d6000803e3d6000fd5b505050506040513d6000823e601f3d908101601f1916820160405261052991908101906124d5565b905060007f00000000000000000000000000000000000000000000000000000000000000006001600160a01b031663ea63738d8360e001516040518263ffffffff1660e01b815260040161057d9190612282565b600060405180830381865afa15801561059a573d6000803e3d6000fd5b505050506040513d6000823e601f3d908101601f191682016040526105c29190810190612509565b60608101516040808301519051630ff8f14360e11b815261ffff909216600483015260248201529091506000907f00000000000000000000000000000000000000000000000000000000000000006001600160a01b031690631ff1e28690604401602060405180830381865afa158015610640573d6000803e3d6000fd5b505050506040513d601f19601f8201168201806040525081019061066491906125d4565b90506001600160a01b0381166106b65760405162461bcd60e51b81526020600482015260126024820152711d1bdad95b881b9bdd08185d1d195cdd195960721b60448201526064015b60405180910390fd5b60405163c3f511c160e01b81526001600160a01b037f0000000000000000000000000000000000000000000000000000000000000000169063c3f511c190610702908790600401612282565b6000604051808303816000875af1158015610721573d6000803e3d6000fd5b505050506040513d6000823e601f3d908101601f1916820160405261074991908101906125f1565b506020808301516080850151606086015161ffff166000908152600590935260409092205490911461078d5760405162461bcd60e51b81526004016106ad90612625565b600061079c8460e001516108c4565b6020810151604082015160045492935090918111156107fa5760405162461bcd60e51b815260206004820152601a602482015279496e73756666696369656e74206c6f636b656420746f6b656e7360301b60448201526064016106ad565b806004600082825461080c919061266d565b909155506108319050826108208387612680565b6001600160a01b0388169190611aed565b5050505050505050565b60007f00000000000000000000000000000000000000000000000000000000000000006001600160a01b031663ad5c46486040518163ffffffff1660e01b8152600401602060405180830381865afa15801561089b573d6000803e3d6000fd5b505050506040513d601f19601f820116820180604052508101906108bf91906125d4565b905090565b60408051606081018252600080825260208201819052918101829052906108eb8382611b51565b60ff168083526001146109345760405162461bcd60e51b81526020600482015260116024820152701a5b9d985b1a59081c185e5b1bd8591251607a1b60448201526064016106ad565b61093f600182612680565b905061094b8382611bb1565b60208084019190915261095e9082612680565b905061096a8382611c14565b6001600160401b03166040830152610983600882612680565b9050825181146109ce5760405162461bcd60e51b81526020600482015260166024820152750d2dcecc2d8d2c840e0c2f2d8dec2c840d8cadccee8d60531b60448201526064016106ad565b50919050565b6000807f00000000000000000000000000000000000000000000000000000000000000006001600160a01b0316631a90a2196040518163ffffffff1660e01b8152600401602060405180830381865afa158015610a35573d6000803e3d6000fd5b505050506040513d601f19601f82011682018060405250810190610a599190612693565b905080341015610a7b5760405162461bcd60e51b81526004016106ad906126ac565b610a996001600160a01b03871633306001600160401b038916611c6c565b3360009081526003602090815260408083206001600160a01b038a16845290915281206001600160401b038716908190556004805491929091610add908490612680565b9250508190555060008484427f00000000000000000000000000000000000000000000000000000000000000006001600160a01b0316639a8a05926040518163ffffffff1660e01b8152600401602060405180830381865afa158015610b47573d6000803e3d6000fd5b505050506040513d601f19601f82011682018060405250810190610b6b91906126f7565b6040516001600160c01b031960c095861b8116602083015293851b8416602882015291841b831660308301526001600160f01b031960f09190911b1660388201526001600160601b031933606090811b8216603a8401528b901b16605a8201529188901b16607a82015260820160408051601f1981840301815282820182526001808452602084810183905282519351929550600093610c0f939091879101612714565b60408051808303601f19018152919052600180549192507f00000000000000000000000000000000000000000000000000000000000000006001600160a01b03169163b19a437e918791600160a01b900463ffffffff16906014610c728361275e565b91906101000a81548163ffffffff021916908363ffffffff1602179055508460c86040518563ffffffff1660e01b8152600401610cb193929190612783565b60206040518083038185885af1158015610ccf573d6000803e3d6000fd5b50505050506040513d601f19601f82011682018060405250810190610cf491906127b5565b9998505050505050505050565b6000546001600160a01b03163314610d2b5760405162461bcd60e51b81526004016106ad906127d2565b6001600160a01b038116610d665760405162461bcd60e51b81526020600482015260026024820152615a4160f01b60448201526064016106ad565b600280546001600160a01b0319166001600160a01b0392909216919091179055565b6000546001600160a01b03163314610db25760405162461bcd60e51b81526004016106ad906127d2565b61ffff909116600090815260056020526040902055565b60007f00000000000000000000000000000000000000000000000000000000000000006001600160a01b0316631a90a2196040518163ffffffff1660e01b8152600401602060405180830381865afa158015610e29573d6000803e3d6000fd5b505050506040513d601f19601f82011682018060405250810190610e4d9190612693565b905080341015610e935760405162461bcd60e51b8152602060048201526011602482015270496e76616c6964206d73672076616c756560781b60448201526064016106ad565b610eb16001600160a01b03861633306001600160401b038816611c6c565b7f00000000000000000000000000000000000000000000000000000000000000006001600160a01b031663c5a5ebda86868686600160149054906101000a900463ffffffff168c604051602001610f089190611d0f565b6040516020818303038152906040526040518763ffffffff1660e01b8152600401610f3896959493929190612807565b6020604051808303816000875af1158015610f57573d6000803e3d6000fd5b505050506040513d601f19601f82011682018060405250810190610f7b91906127b5565b50505050505050565b60007f00000000000000000000000000000000000000000000000000000000000000006001600160a01b0316631a90a2196040518163ffffffff1660e01b8152600401602060405180830381865afa158015610fe4573d6000803e3d6000fd5b505050506040513d601f19601f820116820180604052508101906108bf9190612693565b336001600160a01b037f0000000000000000000000000000000000000000000000000000000000000000161461106e5760405162461bcd60e51b815260206004820152600b60248201526a2737ba103932b630bcb2b960a91b60448201526064016106ad565b61ffff82166000908152600560205260409020548290849081146110cc5760405162461bcd60e51b81526020600482015260156024820152742737ba103932b3b4b9ba32b932b21039b2b73232b960591b60448201526064016106ad565b6000878060200190518101906110e29190612863565b5050604080516001600160a01b038816815261ffff8e1660208201529081018e90529597507fed57b41026cbcb13384f314fbbf57a49654f4ac69be150d2cbfcd49d10f87fc39650506060909401935061113b92505050565b60405180910390a15050505050505050565b6001546001600160a01b0316331461116457600080fd5b600154600080546040516001600160a01b039384169390911691600080516020612b0c83398151915291a3600154600080546001600160a01b0319166001600160a01b03909216919091179055565b60405163c23ee3c360e01b81526000906001600160a01b037f0000000000000000000000000000000000000000000000000000000000000000169063c23ee3c3906112099086908590620f424090600401612902565b6040805180830381865afa158015611225573d6000803e3d6000fd5b505050506040513d601f19601f82011682018060405250810190611249919061291e565b5090508034101561126c5760405162461bcd60e51b81526004016106ad906126ac565b6040805160208101889052908101869052606080820186905242608083015289901b6001600160601b03191660a082015260c0810188905260009060e00160405160208183030381529060405290507f00000000000000000000000000000000000000000000000000000000000000006001600160a01b0316638fecdd028386868533604051602001611300929190612942565b6040516020818303038152906040526000620f42406040518763ffffffff1660e01b815260040161133595949392919061296c565b60206040518083038185885af1158015611353573d6000803e3d6000fd5b50505050506040513d601f19601f8201168201806040525081019061137891906127b5565b50505050505050505050565b60405163c23ee3c360e01b81526000906001600160a01b037f0000000000000000000000000000000000000000000000000000000000000000169063c23ee3c3906113da9085908590620f424090600401612902565b6040805180830381865afa1580156113f6573d6000803e3d6000fd5b505050506040513d601f19601f8201168201806040525081019061141a919061291e565b5092915050565b60008060007f00000000000000000000000000000000000000000000000000000000000000006001600160a01b031663c0fd8bde86866040518363ffffffff1660e01b81526004016114749291906129ae565b600060405180830381865afa158015611491573d6000803e3d6000fd5b505050506040513d6000823e601f3d908101601f191682016040526114b991908101906129dd565b9250925092508181906114df5760405162461bcd60e51b81526004016106ad9190612282565b506080830151606084015161ffff166000908152600560205260409020541461151a5760405162461bcd60e51b81526004016106ad90612625565b60015460a08401516001600160401b03600160c01b90920482169116101561157e5760405162461bcd60e51b815260206004820152601760248201527624b73b30b634b21029b2b8bab2b731b290373ab6b132b960491b60448201526064016106ad565b60a083015161158e906001612a70565b600160186101000a8154816001600160401b0302191690836001600160401b03160217905550426202a300846020015163ffffffff166115ce9190612680565b10156116165760405162461bcd60e51b815260206004820152601760248201527613595cdcd859d9481b9bc81b1bdb99d95c881d985b1a59604a1b60448201526064016106ad565b60008060008060008760e001518060200190518101906116369190612a8f565b945094509450945094507f00000000000000000000000000000000000000000000000000000000000000006001600160a01b0316639a8a05926040518163ffffffff1660e01b8152600401602060405180830381865afa15801561169e573d6000803e3d6000fd5b505050506040513d601f19601f820116820180604052508101906116c291906126f7565b61ffff168261ffff16146117095760405162461bcd60e51b815260206004820152600e60248201526d15dc9bdb99c818da185a5b88125960921b60448201526064016106ad565b6001600160601b03193060601b1681146117555760405162461bcd60e51b815260206004820152600d60248201526c57726f6e67206164647265737360981b60448201526064016106ad565b6001600160a01b03808616600090815260036020908152604080832093881683529290522054838110156117bc5760405162461bcd60e51b815260206004820152600e60248201526d125b9d985b1a5908185b5bdd5b9d60921b60448201526064016106ad565b6001600160a01b038087166000908152600360209081526040808320938916835292905290812080548692906117f390849061266d565b9091555061180d90506001600160a01b0386168786611aed565b846001600160a01b03167f9dd3045b6df532ed81beb2a333cec6249dafd3c2fc54c80c50155cb0e1a0ba1e8560405161184891815260200190565b60405180910390a25050505050505050505050565b6000546001600160a01b031633146118875760405162461bcd60e51b81526004016106ad906127d2565b6001600160a01b0381166118ec5760405162461bcd60e51b815260206004820152602660248201527f4f776e61626c653a206e6577206f776e657220697320746865207a65726f206160448201526564647265737360d01b60648201526084016106ad565b600180546001600160a01b0319166001600160a01b0392909216919091179055565b6000546001600160a01b031633146119385760405162461bcd60e51b81526004016106ad906127d2565b600080546040516001600160a01b0390911690600080516020612b0c833981519152908390a3600080546001600160a01b0319169055565b60007f00000000000000000000000000000000000000000000000000000000000000006001600160a01b0316639a8a05926040518163ffffffff1660e01b8152600401602060405180830381865afa1580156119d0573d6000803e3d6000fd5b505050506040513d601f19601f820116820180604052508101906108bf91906126f7565b60025460405163134f89bd60e01b815261ffff8316600482015260009182916001600160a01b039091169063134f89bd90602401602060405180830381865afa158015611a45573d6000803e3d6000fd5b505050506040513d601f19601f82011682018060405250810190611a699190612af0565b600254604051639e68b12960e01b815263ffffffff83166004820152602481018790529192506001600160a01b031690639e68b12990604401602060405180830381865afa158015611abf573d6000803e3d6000fd5b505050506040513d601f19601f82011682018060405250810190611ae39190612693565b9150505b92915050565b6040516001600160a01b03838116602483015260448201839052611b4c91859182169063a9059cbb906064015b604051602081830303815290604052915060e01b6020820180516001600160e01b038381831617835250505050611cab565b505050565b600081835111611b995760405162461bcd60e51b8152602060048201526013602482015272746f55696e74385f6f75744f66426f756e647360681b60448201526064016106ad565b6000611ba6600184612680565b909301519392505050565b600080611bbf602084612680565b90508084511015611c0a5760405162461bcd60e51b8152602060048201526015602482015274746f427974657333325f6f75744f66426f756e647360581b60448201526064016106ad565b9092015192915050565b600080611c22600884612680565b90508084511015611c0a5760405162461bcd60e51b8152602060048201526014602482015273746f55696e7436345f6f75744f66426f756e647360601b60448201526064016106ad565b6040516001600160a01b038481166024830152838116604483015260648201839052611ca59186918216906323b872dd90608401611b1a565b50505050565b600080602060008451602086016000885af180611cce576040513d6000823e3d81fd5b50506000513d91508115611ce6578060011415611cf3565b6001600160a01b0384163b155b15611ca55783604051635274afe760e01b81526004016106ad91905b6001600160a01b0391909116815260200190565b634e487b7160e01b600052604160045260246000fd5b604051608081016001600160401b0381118282101715611d5b57611d5b611d23565b60405290565b60405161016081016001600160401b0381118282101715611d5b57611d5b611d23565b60405161010081016001600160401b0381118282101715611d5b57611d5b611d23565b604051601f8201601f191681016001600160401b0381118282101715611dcf57611dcf611d23565b604052919050565b60006001600160401b03821115611df057611df0611d23565b50601f01601f191660200190565b600082601f830112611e0f57600080fd5b8135611e22611e1d82611dd7565b611da7565b818152846020838601011115611e3757600080fd5b816020850160208301376000918101602001919091529392505050565b600060208284031215611e6657600080fd5b81356001600160401b03811115611e7c57600080fd5b611e8884828501611dfe565b949350505050565b6001600160a01b0381168114611ea557600080fd5b50565b6001600160401b0381168114611ea557600080fd5b60008060008060808587031215611ed357600080fd5b8435611ede81611e90565b93506020850135611eee81611ea8565b92506040850135611efe81611ea8565b91506060850135611f0e81611ea8565b939692955090935050565b600060208284031215611f2b57600080fd5b8135611f3681611e90565b9392505050565b61ffff81168114611ea557600080fd5b8035611f5881611f3d565b919050565b60008060408385031215611f7057600080fd5b8235611f7b81611f3d565b946020939093013593505050565b600080600080600060a08688031215611fa157600080fd5b8535611fac81611e90565b94506020860135611fbc81611e90565b93506040860135611fcc81611ea8565b92506060860135611fdc81611f3d565b949793965091946080013592915050565b60006001600160401b0382111561200657612006611d23565b5060051b60200190565b600080600080600060a0868803121561202857600080fd5b85356001600160401b0381111561203e57600080fd5b61204a88828901611dfe565b95505060208601356001600160401b0381111561206657600080fd5b8601601f8101881361207757600080fd5b8035612085611e1d82611fed565b8082825260208201915060208360051b85010192508a8311156120a757600080fd5b602084015b838110156120e85780356001600160401b038111156120ca57600080fd5b6120d98d602083890101611dfe565b845250602092830192016120ac565b50965050505060408601359250611fdc60608701611f4d565b600080600080600080600060e0888a03121561211c57600080fd5b873561212781611e90565b96506020880135955060408801359450606088013593506080880135925060a088013561215381611f3d565b915060c088013561216381611e90565b8091505092959891949750929550565b60006020828403121561218557600080fd5b8135611f3681611f3d565b600080602083850312156121a357600080fd5b82356001600160401b038111156121b957600080fd5b8301601f810185136121ca57600080fd5b80356001600160401b038111156121e057600080fd5b8560208284010111156121f257600080fd5b6020919091019590945092505050565b6000806040838503121561221557600080fd5b82359150602083013561222781611f3d565b809150509250929050565b60005b8381101561224d578181015183820152602001612235565b50506000910152565b6000815180845261226e816020860160208601612232565b601f01601f19169290920160200192915050565b602081526000611f366020830184612256565b805160ff81168114611f5857600080fd5b805163ffffffff81168114611f5857600080fd5b8051611f5881611f3d565b8051611f5881611ea8565b60006122de611e1d84611dd7565b90508281528383830111156122f257600080fd5b611f36836020830184612232565b600082601f83011261231157600080fd5b611f36838351602085016122d0565b600082601f83011261233157600080fd5b815161233f611e1d82611fed565b8082825260208201915060208360071b86010192508583111561236157600080fd5b602085015b838110156123c6576080818803121561237e57600080fd5b612386611d39565b81518152602080830151908201526123a060408301612295565b60408201526123b160608301612295565b60608201528352602090920191608001612366565b5095945050505050565b600061016082840312156123e357600080fd5b6123eb611d61565b90506123f682612295565b8152612404602083016122a6565b6020820152612415604083016122a6565b6040820152612426606083016122ba565b60608201526080828101519082015261244160a083016122c5565b60a082015261245260c08301612295565b60c082015260e08201516001600160401b0381111561247057600080fd5b61247c84828501612300565b60e08301525061248f61010083016122a6565b6101008201526101208201516001600160401b038111156124af57600080fd5b6124bb84828501612320565b610120830152506101409182015191810191909152919050565b6000602082840312156124e757600080fd5b81516001600160401b038111156124fd57600080fd5b611e88848285016123d0565b60006020828403121561251b57600080fd5b81516001600160401b0381111561253157600080fd5b8201610100818503121561254457600080fd5b61254c611d84565b61255582612295565b81526020828101519082015260408083015190820152612577606083016122ba565b60608201526080828101519082015261259260a083016122ba565b60a082015260c0828101519082015260e08201516001600160401b038111156125ba57600080fd5b6125c686828501612300565b60e083015250949350505050565b6000602082840312156125e657600080fd5b8151611f3681611e90565b60006020828403121561260357600080fd5b81516001600160401b0381111561261957600080fd5b611e8884828501612300565b602080825260189082015277496e76616c696420456d697474657220416464726573732160401b604082015260600190565b634e487b7160e01b600052601160045260246000fd5b81810381811115611ae757611ae7612657565b80820180821115611ae757611ae7612657565b6000602082840312156126a557600080fd5b5051919050565b6020808252602b908201527f496e73756666696369656e742066756e647320666f722063726f73732d63686160408201526a696e2064656c697665727960a81b606082015260800190565b60006020828403121561270957600080fd5b8151611f3681611f3d565b60f884901b6001600160f81b031916815260f083901b6001600160f01b0319166001820152815160009061274f816003850160208701612232565b91909101600301949350505050565b600063ffffffff821663ffffffff810361277a5761277a612657565b60010192915050565b63ffffffff841681526060602082015260006127a26060830185612256565b905060ff83166040830152949350505050565b6000602082840312156127c757600080fd5b8151611f3681611ea8565b6020808252818101527f4f776e61626c653a2063616c6c6572206973206e6f7420746865206f776e6572604082015260600190565b6001600160a01b03871681526001600160401b038616602082015261ffff851660408201526060810184905263ffffffff8316608082015260c060a0820181905260009061285790830184612256565b98975050505050505050565b60008060008060008060008060006101208a8c03121561288257600080fd5b60008a51905080995050600060208b0151905080985050600060408b0151905080975050600060608b0151905080965050600060808b0151905080955050600060a08b0151905080945050600060c08b0151905080935050600060e08b015190508092505060006101008b01519050809150509295985092959850929598565b61ffff9390931683526020830191909152604082015260600190565b6000806040838503121561293157600080fd5b505080516020909101519092909150565b6040815260006129556040830185612256565b905060018060a01b03831660208301529392505050565b61ffff861681526001600160a01b038516602082015260a06040820181905260009061299a90830186612256565b606083019490945250608001529392505050565b60208152816020820152818360408301376000818301604090810191909152601f909201601f19160101919050565b6000806000606084860312156129f257600080fd5b83516001600160401b03811115612a0857600080fd5b612a14868287016123d0565b93505060208401518015158114612a2a57600080fd5b60408501519092506001600160401b03811115612a4657600080fd5b8401601f81018613612a5757600080fd5b612a66868251602084016122d0565b9150509250925092565b6001600160401b038181168382160190811115611ae757611ae7612657565b600080600080600060a08688031215612aa757600080fd5b8551612ab281611e90565b6020870151909550612ac381611e90565b604087015160608801519195509350612adb81611f3d565b60809690960151949793965091949392915050565b600060208284031215612b0257600080fd5b611f36826122a656fe8be0079c531659141344cd1fd0a4f28419497f9722a3daafe3b4186f6b6457e0a2646970667358221220fe742b45ce66347ec9adb7a7715442e1ccd70ab2887efa46c776a47dc90bdad964736f6c634300081b0033",
  "devdoc": {
    "errors": {
      "SafeERC20FailedOperation(address)": [
        {
          "details": "An operation with an ERC-20 token failed."
        }
      ]
    },
    "kind": "dev",
    "methods": {},
    "version": 1
  },
  "userdoc": {
    "kind": "user",
    "methods": {
      "MESSAGE_TIME_OUT_SECONDS()": {
        "notice": "Message timeout in seconds: Time out needs to account for: - Finality time on source chain - Time for Wormhole validators to sign and make VAA available to relayers - Time to relay VAA to the target chain - Congestion on target chain leading to delayed inclusion of transaction in target chain Note that there is no way to alter this hard coded value. Including such a feature would require some governance structure and some minumum and maximum values."
      }
    },
    "version": 1
  },
  "storageLayout": {
    "storage": [
      {
        "astId": 595,
        "contract": "contracts/WormholeBridge.sol:WormholeBridge",
        "label": "_policy",
        "offset": 0,
        "slot": "0",
        "type": "t_address"
      },
      {
        "astId": 597,
        "contract": "contracts/WormholeBridge.sol:WormholeBridge",
        "label": "_newPolicy",
        "offset": 0,
        "slot": "1",
        "type": "t_address"
      },
      {
        "astId": 732,
        "contract": "contracts/WormholeBridge.sol:WormholeBridge",
        "label": "NONCE",
        "offset": 20,
        "slot": "1",
        "type": "t_uint32"
      },
      {
        "astId": 741,
        "contract": "contracts/WormholeBridge.sol:WormholeBridge",
        "label": "minSequence",
        "offset": 24,
        "slot": "1",
        "type": "t_uint64"
      },
      {
        "astId": 757,
        "contract": "contracts/WormholeBridge.sol:WormholeBridge",
        "label": "circleIntegration",
        "offset": 0,
        "slot": "2",
        "type": "t_contract(ICircleIntegration)1926"
      },
      {
        "astId": 763,
        "contract": "contracts/WormholeBridge.sol:WormholeBridge",
        "label": "locked",
        "offset": 0,
        "slot": "3",
        "type": "t_mapping(t_address,t_mapping(t_address,t_uint256))"
      },
      {
        "astId": 765,
        "contract": "contracts/WormholeBridge.sol:WormholeBridge",
        "label": "totalLocked",
        "offset": 0,
        "slot": "4",
        "type": "t_uint256"
      },
      {
        "astId": 769,
        "contract": "contracts/WormholeBridge.sol:WormholeBridge",
        "label": "registeredSenders",
        "offset": 0,
        "slot": "5",
        "type": "t_mapping(t_uint16,t_bytes32)"
      }
    ],
    "types": {
      "t_address": {
        "encoding": "inplace",
        "label": "address",
        "numberOfBytes": "20"
      },
      "t_bytes32": {
        "encoding": "inplace",
        "label": "bytes32",
        "numberOfBytes": "32"
      },
      "t_contract(ICircleIntegration)1926": {
        "encoding": "inplace",
        "label": "contract ICircleIntegration",
        "numberOfBytes": "20"
      },
      "t_mapping(t_address,t_mapping(t_address,t_uint256))": {
        "encoding": "mapping",
        "key": "t_address",
        "label": "mapping(address => mapping(address => uint256))",
        "numberOfBytes": "32",
        "value": "t_mapping(t_address,t_uint256)"
      },
      "t_mapping(t_address,t_uint256)": {
        "encoding": "mapping",
        "key": "t_address",
        "label": "mapping(address => uint256)",
        "numberOfBytes": "32",
        "value": "t_uint256"
      },
      "t_mapping(t_uint16,t_bytes32)": {
        "encoding": "mapping",
        "key": "t_uint16",
        "label": "mapping(uint16 => bytes32)",
        "numberOfBytes": "32",
        "value": "t_bytes32"
      },
      "t_uint16": {
        "encoding": "inplace",
        "label": "uint16",
        "numberOfBytes": "2"
      },
      "t_uint256": {
        "encoding": "inplace",
        "label": "uint256",
        "numberOfBytes": "32"
      },
      "t_uint32": {
        "encoding": "inplace",
        "label": "uint32",
        "numberOfBytes": "4"
      },
      "t_uint64": {
        "encoding": "inplace",
        "label": "uint64",
        "numberOfBytes": "8"
      }
    }
  }
}