{
  "address": "0xb904F68bD0a99E6d33698fCC98BBff3735Da3d5F",
  "abi": [
    {
      "inputs": [
        {
          "internalType": "address",
          "name": "_wormhole",
          "type": "address"
        },
        {
          "internalType": "address",
          "name": "_tokenBridge",
          "type": "address"
        },
        {
          "internalType": "address",
          "name": "_wormholeRelayer",
          "type": "address"
        }
      ],
      "stateMutability": "nonpayable",
      "type": "constructor"
    },
    {
      "inputs": [
        {
          "internalType": "address",
          "name": "token",
          "type": "address"
        }
      ],
      "name": "SafeERC20FailedOperation",
      "type": "error"
    },
    {
      "anonymous": false,
      "inputs": [
        {
          "indexed": true,
          "internalType": "address",
          "name": "previousOwner",
          "type": "address"
        },
        {
          "indexed": true,
          "internalType": "address",
          "name": "newOwner",
          "type": "address"
        }
      ],
      "name": "OwnershipTransferred",
      "type": "event"
    },
    {
      "anonymous": false,
      "inputs": [
        {
          "indexed": false,
          "internalType": "address",
          "name": "sender",
          "type": "address"
        },
        {
          "indexed": false,
          "internalType": "uint16",
          "name": "sourceChain",
          "type": "uint16"
        },
        {
          "indexed": false,
          "internalType": "bytes32",
          "name": "sourceAddress",
          "type": "bytes32"
        }
      ],
      "name": "ReceiveMessage",
      "type": "event"
    },
    {
      "anonymous": false,
      "inputs": [
        {
          "indexed": true,
          "internalType": "address",
          "name": "token",
          "type": "address"
        },
        {
          "indexed": false,
          "internalType": "uint256",
          "name": "amount",
          "type": "uint256"
        }
      ],
      "name": "TransferToken",
      "type": "event"
    },
    {
      "inputs": [],
      "name": "CONSISTENCY_LEVEL",
      "outputs": [
        {
          "internalType": "uint8",
          "name": "",
          "type": "uint8"
        }
      ],
      "stateMutability": "view",
      "type": "function"
    },
    {
      "inputs": [],
      "name": "GAS_LIMIT",
      "outputs": [
        {
          "internalType": "uint256",
          "name": "",
          "type": "uint256"
        }
      ],
      "stateMutability": "view",
      "type": "function"
    },
    {
      "inputs": [],
      "name": "MESSAGE_TIME_OUT_SECONDS",
      "outputs": [
        {
          "internalType": "uint256",
          "name": "",
          "type": "uint256"
        }
      ],
      "stateMutability": "view",
      "type": "function"
    },
    {
      "inputs": [],
      "name": "circleIntegration",
      "outputs": [
        {
          "internalType": "contract ICircleIntegration",
          "name": "",
          "type": "address"
        }
      ],
      "stateMutability": "view",
      "type": "function"
    },
    {
      "inputs": [
        {
          "internalType": "bytes",
          "name": "encodedMessage",
          "type": "bytes"
        }
      ],
      "name": "decodePayload",
      "outputs": [
        {
          "components": [
            {
              "internalType": "uint8",
              "name": "payloadID",
              "type": "uint8"
            },
            {
              "internalType": "bytes32",
              "name": "recipient",
              "type": "bytes32"
            },
            {
              "internalType": "uint256",
              "name": "amount",
              "type": "uint256"
            }
          ],
          "internalType": "struct WormholeBridge.TokenTransfer",
          "name": "parsedMessage",
          "type": "tuple"
        }
      ],
      "stateMutability": "pure",
      "type": "function"
    },
    {
      "inputs": [],
      "name": "getMessageFee",
      "outputs": [
        {
          "internalType": "uint256",
          "name": "",
          "type": "uint256"
        }
      ],
      "stateMutability": "view",
      "type": "function"
    },
    {
      "inputs": [
        {
          "internalType": "bytes32",
          "name": "tokenAddress",
          "type": "bytes32"
        },
        {
          "internalType": "uint16",
          "name": "sourceChain",
          "type": "uint16"
        }
      ],
      "name": "getSourceAddress",
      "outputs": [
        {
          "internalType": "address",
          "name": "",
          "type": "address"
        }
      ],
      "stateMutability": "view",
      "type": "function"
    },
    {
      "inputs": [],
      "name": "getWeth",
      "outputs": [
        {
          "internalType": "contract IWETH",
          "name": "",
          "type": "address"
        }
      ],
      "stateMutability": "view",
      "type": "function"
    },
    {
      "inputs": [],
      "name": "getWormholeChainId",
      "outputs": [
        {
          "internalType": "uint16",
          "name": "",
          "type": "uint16"
        }
      ],
      "stateMutability": "view",
      "type": "function"
    },
    {
      "inputs": [],
      "name": "policy",
      "outputs": [
        {
          "internalType": "address",
          "name": "",
          "type": "address"
        }
      ],
      "stateMutability": "view",
      "type": "function"
    },
    {
      "inputs": [],
      "name": "pullPolicy",
      "outputs": [],
      "stateMutability": "nonpayable",
      "type": "function"
    },
    {
      "inputs": [
        {
          "internalType": "address",
          "name": "newPolicy_",
          "type": "address"
        }
      ],
      "name": "pushPolicy",
      "outputs": [],
      "stateMutability": "nonpayable",
      "type": "function"
    },
    {
      "inputs": [
        {
          "internalType": "uint16",
          "name": "targetChain",
          "type": "uint16"
        }
      ],
      "name": "quoteEVMDeliveryCost",
      "outputs": [
        {
          "internalType": "uint256",
          "name": "cost",
          "type": "uint256"
        }
      ],
      "stateMutability": "view",
      "type": "function"
    },
    {
      "inputs": [
        {
          "internalType": "bytes",
          "name": "_whMessage",
          "type": "bytes"
        }
      ],
      "name": "receiveSolanaMessage",
      "outputs": [],
      "stateMutability": "payable",
      "type": "function"
    },
    {
      "inputs": [
        {
          "internalType": "bytes",
          "name": "payload",
          "type": "bytes"
        },
        {
          "internalType": "bytes[]",
          "name": "",
          "type": "bytes[]"
        },
        {
          "internalType": "bytes32",
          "name": "sourceAddress",
          "type": "bytes32"
        },
        {
          "internalType": "uint16",
          "name": "sourceChain",
          "type": "uint16"
        },
        {
          "internalType": "bytes32",
          "name": "",
          "type": "bytes32"
        }
      ],
      "name": "receiveWormholeMessages",
      "outputs": [],
      "stateMutability": "payable",
      "type": "function"
    },
    {
      "inputs": [
        {
          "internalType": "bytes",
          "name": "encodedVM",
          "type": "bytes"
        }
      ],
      "name": "redeemTransferWithPayload",
      "outputs": [],
      "stateMutability": "nonpayable",
      "type": "function"
    },
    {
      "inputs": [
        {
          "internalType": "uint16",
          "name": "sourceChain",
          "type": "uint16"
        },
        {
          "internalType": "bytes32",
          "name": "sourceAddress",
          "type": "bytes32"
        }
      ],
      "name": "registerSender",
      "outputs": [],
      "stateMutability": "nonpayable",
      "type": "function"
    },
    {
      "inputs": [],
      "name": "relayer",
      "outputs": [
        {
          "internalType": "contract IWormholeRelayer",
          "name": "",
          "type": "address"
        }
      ],
      "stateMutability": "view",
      "type": "function"
    },
    {
      "inputs": [],
      "name": "renouncePolicy",
      "outputs": [],
      "stateMutability": "nonpayable",
      "type": "function"
    },
    {
      "inputs": [
        {
          "internalType": "address",
          "name": "_bettingToken",
          "type": "address"
        },
        {
          "internalType": "uint256",
          "name": "_amount",
          "type": "uint256"
        },
        {
          "internalType": "uint256",
          "name": "_marketId",
          "type": "uint256"
        },
        {
          "internalType": "uint256",
          "name": "_answerId",
          "type": "uint256"
        },
        {
          "internalType": "uint256",
          "name": "_bettingKey",
          "type": "uint256"
        },
        {
          "internalType": "uint16",
          "name": "targetChain",
          "type": "uint16"
        },
        {
          "internalType": "address",
          "name": "targetAddress",
          "type": "address"
        }
      ],
      "name": "sendMessageToEvm",
      "outputs": [],
      "stateMutability": "payable",
      "type": "function"
    },
    {
      "inputs": [
        {
          "internalType": "address",
          "name": "_bettingToken",
          "type": "address"
        },
        {
          "internalType": "uint64",
          "name": "_amount",
          "type": "uint64"
        },
        {
          "internalType": "uint64",
          "name": "_marketId",
          "type": "uint64"
        },
        {
          "internalType": "uint64",
          "name": "_answerId",
          "type": "uint64"
        }
      ],
      "name": "sendMessageToSolana",
      "outputs": [
        {
          "internalType": "uint64",
          "name": "sequence",
          "type": "uint64"
        }
      ],
      "stateMutability": "payable",
      "type": "function"
    },
    {
      "inputs": [
        {
          "internalType": "address",
          "name": "_circleIntegration",
          "type": "address"
        }
      ],
      "name": "setCCTP",
      "outputs": [],
      "stateMutability": "nonpayable",
      "type": "function"
    },
    {
      "inputs": [],
      "name": "tokenBridge",
      "outputs": [
        {
          "internalType": "contract ITokenBridge",
          "name": "",
          "type": "address"
        }
      ],
      "stateMutability": "view",
      "type": "function"
    },
    {
      "inputs": [
        {
          "internalType": "address",
          "name": "_recipient",
          "type": "address"
        },
        {
          "internalType": "address",
          "name": "_bettingToken",
          "type": "address"
        },
        {
          "internalType": "uint64",
          "name": "_amount",
          "type": "uint64"
        },
        {
          "internalType": "uint16",
          "name": "_targetChain",
          "type": "uint16"
        },
        {
          "internalType": "bytes32",
          "name": "_targetAddress",
          "type": "bytes32"
        }
      ],
      "name": "transferCrossChain",
      "outputs": [],
      "stateMutability": "payable",
      "type": "function"
    },
    {
      "inputs": [],
      "name": "wormhole",
      "outputs": [
        {
          "internalType": "contract IWormhole",
          "name": "",
          "type": "address"
        }
      ],
      "stateMutability": "view",
      "type": "function"
    }
  ],
  "transactionHash": "0xfe7e1a4a53d70df32f88e8a629283e42763d9368afd2e6bb88b1498f475edfaf",
  "args": [
    "0x7bbcE28e64B3F8b84d876Ab298393c38ad7aac4C",
    "0x61E44E506Ca5659E6c0bba9b678586fA2d729756",
    "0xA3cF45939bD6260bcFe3D66bc73d60f19e49a8BB"
  ],
  "numDeployments": 3,
  "solcInputHash": "e8b92299d07a1a4c98add160736d6729",
  "bytecode": "0x60e0604052600180546001600160c01b0316905534801561001f57600080fd5b50604051612dee380380612dee83398101604081905261003e9161011c565b600080546001600160a01b0319163390811782556040519091907f8be0079c531659141344cd1fd0a4f28419497f9722a3daafe3b4186f6b6457e0908290a36001600160a01b0383166100ac5760405162461bcd60e51b81526004016100a39061015f565b60405180910390fd5b6001600160a01b0380841660805282166100d85760405162461bcd60e51b81526004016100a39061015f565b6001600160a01b0391821660a0521660c052506001805463ffffffff60a01b1916905561017b565b80516001600160a01b038116811461011757600080fd5b919050565b60008060006060848603121561013157600080fd5b61013a84610100565b925061014860208501610100565b915061015660408501610100565b90509250925092565b6020808252600290820152615a4160f01b604082015260600190565b60805160a05160c051612bc66102286000396000818161033601528181611096015281816112500152818161134001526114210152600081816103fb0152818161050e015281816105d0015281816106ac015281816108490152610f3601526000818161036a0152818161048e01528181610a6f01528181610b6e01528181610cab01528181610e500152818161100b015281816114ab015281816116c501526119d90152612bc66000f3fe6080604052600436106101265760003560e01c80630505c8c91461012b578063091d27881461015b5780630963d30e14610180578063107c279f146101a2578063197c6e77146101b75780632ec9c883146101fc5780632f43988014610227578063342dc1e514610247578063354b606a146102675780634316dcd31461027a5780634fd686c81461028f578063529dca32146102b65780635beede08146102c95780635f2934d3146102de578063757f3e72146102f157806378af9972146103115780638406c0791461032457806384acd1bb14610358578063a15ad0771461038c578063a4b23980146103ac578063b850509a146103c1578063c6328a46146103e9578063db04e81d1461041d578063dd6522aa1461043d578063e9fa31621461045d575b600080fd5b34801561013757600080fd5b506000546001600160a01b03165b6040516101529190611d74565b60405180910390f35b34801561016757600080fd5b50610172620f424081565b604051908152602001610152565b34801561018c57600080fd5b506101a061019b366004611eb9565b610474565b005b3480156101ae57600080fd5b50610145610845565b3480156101c357600080fd5b506101d76101d2366004611eb9565b6108ce565b60408051825160ff168152602080840151908201529181015190820152606001610152565b61020f61020a366004611f22565b610a6a565b6040516001600160401b039091168152602001610152565b34801561023357600080fd5b506101a0610242366004611f7e565b610d84565b34801561025357600080fd5b506101a0610262366004611fc2565b610e0b565b6101a0610275366004611fee565b610e4c565b34801561028657600080fd5b50610172611007565b34801561029b57600080fd5b506102a460c881565b60405160ff9091168152602001610152565b6101a06102c4366004612075565b61108b565b3480156102d557600080fd5b506101a06111d0565b6101a06102ec366004612166565b611236565b3480156102fd57600080fd5b5061017261030c3660046121d8565b611407565b6101a061031f3660046121f5565b6114a4565b34801561033057600080fd5b506101457f000000000000000000000000000000000000000000000000000000000000000081565b34801561036457600080fd5b506101457f000000000000000000000000000000000000000000000000000000000000000081565b34801561039857600080fd5b506101a06103a7366004611f7e565b6118c2565b3480156103b857600080fd5b506101a0611973565b3480156103cd57600080fd5b506103d66119d5565b60405161ffff9091168152602001610152565b3480156103f557600080fd5b506101457f000000000000000000000000000000000000000000000000000000000000000081565b34801561042957600080fd5b50610145610438366004612267565b611a59565b34801561044957600080fd5b50600254610145906001600160a01b031681565b34801561046957600080fd5b506101726202a30081565b60405163a9e1189360e01b81526000906001600160a01b037f0000000000000000000000000000000000000000000000000000000000000000169063a9e11893906104c39085906004016122e7565b600060405180830381865afa1580156104e0573d6000803e3d6000fd5b505050506040513d6000823e601f3d908101601f19168201604052610508919081019061253a565b905060007f00000000000000000000000000000000000000000000000000000000000000006001600160a01b031663ea63738d8360e001516040518263ffffffff1660e01b815260040161055c91906122e7565b600060405180830381865afa158015610579573d6000803e3d6000fd5b505050506040513d6000823e601f3d908101601f191682016040526105a1919081019061256e565b60608101516040808301519051630ff8f14360e11b815261ffff909216600483015260248201529091506000907f00000000000000000000000000000000000000000000000000000000000000006001600160a01b031690631ff1e28690604401602060405180830381865afa15801561061f573d6000803e3d6000fd5b505050506040513d601f19601f820116820180604052508101906106439190612639565b90506001600160a01b0381166106955760405162461bcd60e51b81526020600482015260126024820152711d1bdad95b881b9bdd08185d1d195cdd195960721b60448201526064015b60405180910390fd5b60405163c3f511c160e01b81526001600160a01b037f0000000000000000000000000000000000000000000000000000000000000000169063c3f511c1906106e19087906004016122e7565b6000604051808303816000875af1158015610700573d6000803e3d6000fd5b505050506040513d6000823e601f3d908101601f191682016040526107289190810190612656565b506020808301516080850151606086015161ffff166000908152600490935260409092205490911461076c5760405162461bcd60e51b815260040161068c9061268a565b600061077b8460e001516108ce565b6020808201516040808401516001600160a01b03881660009081526003909452922054929350918111156107ee5760405162461bcd60e51b815260206004820152601a602482015279496e73756666696369656e74206c6f636b656420746f6b656e7360301b604482015260640161068c565b6001600160a01b038516600090815260036020526040812080548392906108169084906126d2565b9091555061083b90508261082a83876126e5565b6001600160a01b0388169190611b52565b5050505050505050565b60007f00000000000000000000000000000000000000000000000000000000000000006001600160a01b031663ad5c46486040518163ffffffff1660e01b8152600401602060405180830381865afa1580156108a5573d6000803e3d6000fd5b505050506040513d601f19601f820116820180604052508101906108c99190612639565b905090565b60408051606081018252600080825260208201819052918101829052906108f58382611bb6565b60ff1680835260011461093e5760405162461bcd60e51b81526020600482015260116024820152701a5b9d985b1a59081c185e5b1bd8591251607a1b604482015260640161068c565b6109496001826126e5565b90506109558382611c16565b60208084019190915261096890826126e5565b905060006109768483611c79565b90506109836008836126e5565b915060088166ff00ff00ff00ff166001600160401b0316901b60088267ff00ff00ff00ff00166001600160401b0316901c17905060108165ffff0000ffff166001600160401b0316901b60108267ffff0000ffff0000166001600160401b0316901c1790506020816001600160401b0316901b6020826001600160401b0316901c179050806001600160401b031683604001818152505083518214610a635760405162461bcd60e51b81526020600482015260166024820152750d2dcecc2d8d2c840e0c2f2d8dec2c840d8cadccee8d60531b604482015260640161068c565b5050919050565b6000807f00000000000000000000000000000000000000000000000000000000000000006001600160a01b0316631a90a2196040518163ffffffff1660e01b8152600401602060405180830381865afa158015610acb573d6000803e3d6000fd5b505050506040513d601f19601f82011682018060405250810190610aef91906126f8565b905080341015610b115760405162461bcd60e51b815260040161068c90612711565b610b2f6001600160a01b03871633306001600160401b038916611cd1565b6001600160a01b038616600090815260036020526040812080546001600160401b0388169290610b609084906126e5565b9250508190555060008484427f00000000000000000000000000000000000000000000000000000000000000006001600160a01b0316639a8a05926040518163ffffffff1660e01b8152600401602060405180830381865afa158015610bca573d6000803e3d6000fd5b505050506040513d601f19601f82011682018060405250810190610bee919061275c565b6040516001600160c01b031960c095861b8116602083015293851b8416602882015291841b831660308301526001600160f01b031960f09190911b1660388201526001600160601b031933606090811b8216603a8401528b901b16605a8201529188901b16607a82015260820160408051601f1981840301815282820182526001808452602084810183905282519351929550600093610c92939091879101612779565b60408051808303601f19018152919052600180549192507f00000000000000000000000000000000000000000000000000000000000000006001600160a01b03169163b19a437e918791600160a01b900463ffffffff16906014610cf5836127c3565b91906101000a81548163ffffffff021916908363ffffffff1602179055508460c86040518563ffffffff1660e01b8152600401610d34939291906127e8565b60206040518083038185885af1158015610d52573d6000803e3d6000fd5b50505050506040513d601f19601f82011682018060405250810190610d77919061281a565b9998505050505050505050565b6000546001600160a01b03163314610dae5760405162461bcd60e51b815260040161068c90612837565b6001600160a01b038116610de95760405162461bcd60e51b81526020600482015260026024820152615a4160f01b604482015260640161068c565b600280546001600160a01b0319166001600160a01b0392909216919091179055565b6000546001600160a01b03163314610e355760405162461bcd60e51b815260040161068c90612837565b61ffff909116600090815260046020526040902055565b60007f00000000000000000000000000000000000000000000000000000000000000006001600160a01b0316631a90a2196040518163ffffffff1660e01b8152600401602060405180830381865afa158015610eac573d6000803e3d6000fd5b505050506040513d601f19601f82011682018060405250810190610ed091906126f8565b905080341015610f165760405162461bcd60e51b8152602060048201526011602482015270496e76616c6964206d73672076616c756560781b604482015260640161068c565b610f346001600160a01b03861633306001600160401b038816611cd1565b7f00000000000000000000000000000000000000000000000000000000000000006001600160a01b031663c5a5ebda86868686600160149054906101000a900463ffffffff168c604051602001610f8b9190611d74565b6040516020818303038152906040526040518763ffffffff1660e01b8152600401610fbb9695949392919061286c565b6020604051808303816000875af1158015610fda573d6000803e3d6000fd5b505050506040513d601f19601f82011682018060405250810190610ffe919061281a565b50505050505050565b60007f00000000000000000000000000000000000000000000000000000000000000006001600160a01b0316631a90a2196040518163ffffffff1660e01b8152600401602060405180830381865afa158015611067573d6000803e3d6000fd5b505050506040513d601f19601f820116820180604052508101906108c991906126f8565b336001600160a01b037f000000000000000000000000000000000000000000000000000000000000000016146110f15760405162461bcd60e51b815260206004820152600b60248201526a2737ba103932b630bcb2b960a91b604482015260640161068c565b61ffff821660009081526004602052604090205482908490811461114f5760405162461bcd60e51b81526020600482015260156024820152742737ba103932b3b4b9ba32b932b21039b2b73232b960591b604482015260640161068c565b60008780602001905181019061116591906128c8565b5050604080516001600160a01b038816815261ffff8e1660208201529081018e90529597507fed57b41026cbcb13384f314fbbf57a49654f4ac69be150d2cbfcd49d10f87fc3965050606090940193506111be92505050565b60405180910390a15050505050505050565b6001546001600160a01b031633146111e757600080fd5b600154600080546040516001600160a01b039384169390911691600080516020612b7183398151915291a3600154600080546001600160a01b0319166001600160a01b03909216919091179055565b60405163c23ee3c360e01b81526000906001600160a01b037f0000000000000000000000000000000000000000000000000000000000000000169063c23ee3c39061128c9086908590620f424090600401612967565b6040805180830381865afa1580156112a8573d6000803e3d6000fd5b505050506040513d601f19601f820116820180604052508101906112cc9190612983565b509050803410156112ef5760405162461bcd60e51b815260040161068c90612711565b6040805160208101889052908101869052606080820186905242608083015289901b6001600160601b03191660a082015260c0810188905260009060e00160405160208183030381529060405290507f00000000000000000000000000000000000000000000000000000000000000006001600160a01b0316638fecdd0283868685336040516020016113839291906129a7565b6040516020818303038152906040526000620f42406040518763ffffffff1660e01b81526004016113b89594939291906129d1565b60206040518083038185885af11580156113d6573d6000803e3d6000fd5b50505050506040513d601f19601f820116820180604052508101906113fb919061281a565b50505050505050505050565b60405163c23ee3c360e01b81526000906001600160a01b037f0000000000000000000000000000000000000000000000000000000000000000169063c23ee3c39061145d9085908590620f424090600401612967565b6040805180830381865afa158015611479573d6000803e3d6000fd5b505050506040513d601f19601f8201168201806040525081019061149d9190612983565b5092915050565b60008060007f00000000000000000000000000000000000000000000000000000000000000006001600160a01b031663c0fd8bde86866040518363ffffffff1660e01b81526004016114f7929190612a13565b600060405180830381865afa158015611514573d6000803e3d6000fd5b505050506040513d6000823e601f3d908101601f1916820160405261153c9190810190612a42565b9250925092508181906115625760405162461bcd60e51b815260040161068c91906122e7565b506080830151606084015161ffff166000908152600460205260409020541461159d5760405162461bcd60e51b815260040161068c9061268a565b60015460a08401516001600160401b03600160c01b9092048216911610156116015760405162461bcd60e51b815260206004820152601760248201527624b73b30b634b21029b2b8bab2b731b290373ab6b132b960491b604482015260640161068c565b60a0830151611611906001612ad5565b600160186101000a8154816001600160401b0302191690836001600160401b03160217905550426202a300846020015163ffffffff1661165191906126e5565b10156116995760405162461bcd60e51b815260206004820152601760248201527613595cdcd859d9481b9bc81b1bdb99d95c881d985b1a59604a1b604482015260640161068c565b60008060008060008760e001518060200190518101906116b99190612af4565b945094509450945094507f00000000000000000000000000000000000000000000000000000000000000006001600160a01b0316639a8a05926040518163ffffffff1660e01b8152600401602060405180830381865afa158015611721573d6000803e3d6000fd5b505050506040513d601f19601f82011682018060405250810190611745919061275c565b61ffff168261ffff161461178c5760405162461bcd60e51b815260206004820152600e60248201526d15dc9bdb99c818da185a5b88125960921b604482015260640161068c565b6001600160601b03193060601b1681146117d85760405162461bcd60e51b815260206004820152600d60248201526c57726f6e67206164647265737360981b604482015260640161068c565b6001600160a01b0384166000908152600360205260409020548311156118315760405162461bcd60e51b815260206004820152600e60248201526d125b9d985b1a5908185b5bdd5b9d60921b604482015260640161068c565b6001600160a01b038416600090815260036020526040812080548592906118599084906126d2565b9091555061187390506001600160a01b0385168685611b52565b836001600160a01b03167f9dd3045b6df532ed81beb2a333cec6249dafd3c2fc54c80c50155cb0e1a0ba1e846040516118ae91815260200190565b60405180910390a250505050505050505050565b6000546001600160a01b031633146118ec5760405162461bcd60e51b815260040161068c90612837565b6001600160a01b0381166119515760405162461bcd60e51b815260206004820152602660248201527f4f776e61626c653a206e6577206f776e657220697320746865207a65726f206160448201526564647265737360d01b606482015260840161068c565b600180546001600160a01b0319166001600160a01b0392909216919091179055565b6000546001600160a01b0316331461199d5760405162461bcd60e51b815260040161068c90612837565b600080546040516001600160a01b0390911690600080516020612b71833981519152908390a3600080546001600160a01b0319169055565b60007f00000000000000000000000000000000000000000000000000000000000000006001600160a01b0316639a8a05926040518163ffffffff1660e01b8152600401602060405180830381865afa158015611a35573d6000803e3d6000fd5b505050506040513d601f19601f820116820180604052508101906108c9919061275c565b60025460405163134f89bd60e01b815261ffff8316600482015260009182916001600160a01b039091169063134f89bd90602401602060405180830381865afa158015611aaa573d6000803e3d6000fd5b505050506040513d601f19601f82011682018060405250810190611ace9190612b55565b600254604051639e68b12960e01b815263ffffffff83166004820152602481018790529192506001600160a01b031690639e68b12990604401602060405180830381865afa158015611b24573d6000803e3d6000fd5b505050506040513d601f19601f82011682018060405250810190611b4891906126f8565b9150505b92915050565b6040516001600160a01b03838116602483015260448201839052611bb191859182169063a9059cbb906064015b604051602081830303815290604052915060e01b6020820180516001600160e01b038381831617835250505050611d10565b505050565b600081835111611bfe5760405162461bcd60e51b8152602060048201526013602482015272746f55696e74385f6f75744f66426f756e647360681b604482015260640161068c565b6000611c0b6001846126e5565b909301519392505050565b600080611c246020846126e5565b90508084511015611c6f5760405162461bcd60e51b8152602060048201526015602482015274746f427974657333325f6f75744f66426f756e647360581b604482015260640161068c565b9092015192915050565b600080611c876008846126e5565b90508084511015611c6f5760405162461bcd60e51b8152602060048201526014602482015273746f55696e7436345f6f75744f66426f756e647360601b604482015260640161068c565b6040516001600160a01b038481166024830152838116604483015260648201839052611d0a9186918216906323b872dd90608401611b7f565b50505050565b600080602060008451602086016000885af180611d33576040513d6000823e3d81fd5b50506000513d91508115611d4b578060011415611d58565b6001600160a01b0384163b155b15611d0a5783604051635274afe760e01b815260040161068c91905b6001600160a01b0391909116815260200190565b634e487b7160e01b600052604160045260246000fd5b604051608081016001600160401b0381118282101715611dc057611dc0611d88565b60405290565b60405161016081016001600160401b0381118282101715611dc057611dc0611d88565b60405161010081016001600160401b0381118282101715611dc057611dc0611d88565b604051601f8201601f191681016001600160401b0381118282101715611e3457611e34611d88565b604052919050565b60006001600160401b03821115611e5557611e55611d88565b50601f01601f191660200190565b600082601f830112611e7457600080fd5b8135611e87611e8282611e3c565b611e0c565b818152846020838601011115611e9c57600080fd5b816020850160208301376000918101602001919091529392505050565b600060208284031215611ecb57600080fd5b81356001600160401b03811115611ee157600080fd5b611eed84828501611e63565b949350505050565b6001600160a01b0381168114611f0a57600080fd5b50565b6001600160401b0381168114611f0a57600080fd5b60008060008060808587031215611f3857600080fd5b8435611f4381611ef5565b93506020850135611f5381611f0d565b92506040850135611f6381611f0d565b91506060850135611f7381611f0d565b939692955090935050565b600060208284031215611f9057600080fd5b8135611f9b81611ef5565b9392505050565b61ffff81168114611f0a57600080fd5b8035611fbd81611fa2565b919050565b60008060408385031215611fd557600080fd5b8235611fe081611fa2565b946020939093013593505050565b600080600080600060a0868803121561200657600080fd5b853561201181611ef5565b9450602086013561202181611ef5565b9350604086013561203181611f0d565b9250606086013561204181611fa2565b949793965091946080013592915050565b60006001600160401b0382111561206b5761206b611d88565b5060051b60200190565b600080600080600060a0868803121561208d57600080fd5b85356001600160401b038111156120a357600080fd5b6120af88828901611e63565b95505060208601356001600160401b038111156120cb57600080fd5b8601601f810188136120dc57600080fd5b80356120ea611e8282612052565b8082825260208201915060208360051b85010192508a83111561210c57600080fd5b602084015b8381101561214d5780356001600160401b0381111561212f57600080fd5b61213e8d602083890101611e63565b84525060209283019201612111565b5096505050506040860135925061204160608701611fb2565b600080600080600080600060e0888a03121561218157600080fd5b873561218c81611ef5565b96506020880135955060408801359450606088013593506080880135925060a08801356121b881611fa2565b915060c08801356121c881611ef5565b8091505092959891949750929550565b6000602082840312156121ea57600080fd5b8135611f9b81611fa2565b6000806020838503121561220857600080fd5b82356001600160401b0381111561221e57600080fd5b8301601f8101851361222f57600080fd5b80356001600160401b0381111561224557600080fd5b85602082840101111561225757600080fd5b6020919091019590945092505050565b6000806040838503121561227a57600080fd5b82359150602083013561228c81611fa2565b809150509250929050565b60005b838110156122b257818101518382015260200161229a565b50506000910152565b600081518084526122d3816020860160208601612297565b601f01601f19169290920160200192915050565b602081526000611f9b60208301846122bb565b805160ff81168114611fbd57600080fd5b805163ffffffff81168114611fbd57600080fd5b8051611fbd81611fa2565b8051611fbd81611f0d565b6000612343611e8284611e3c565b905082815283838301111561235757600080fd5b611f9b836020830184612297565b600082601f83011261237657600080fd5b611f9b83835160208501612335565b600082601f83011261239657600080fd5b81516123a4611e8282612052565b8082825260208201915060208360071b8601019250858311156123c657600080fd5b602085015b8381101561242b57608081880312156123e357600080fd5b6123eb611d9e565b8151815260208083015190820152612405604083016122fa565b6040820152612416606083016122fa565b606082015283526020909201916080016123cb565b5095945050505050565b6000610160828403121561244857600080fd5b612450611dc6565b905061245b826122fa565b81526124696020830161230b565b602082015261247a6040830161230b565b604082015261248b6060830161231f565b6060820152608082810151908201526124a660a0830161232a565b60a08201526124b760c083016122fa565b60c082015260e08201516001600160401b038111156124d557600080fd5b6124e184828501612365565b60e0830152506124f4610100830161230b565b6101008201526101208201516001600160401b0381111561251457600080fd5b61252084828501612385565b610120830152506101409182015191810191909152919050565b60006020828403121561254c57600080fd5b81516001600160401b0381111561256257600080fd5b611eed84828501612435565b60006020828403121561258057600080fd5b81516001600160401b0381111561259657600080fd5b820161010081850312156125a957600080fd5b6125b1611de9565b6125ba826122fa565b815260208281015190820152604080830151908201526125dc6060830161231f565b6060820152608082810151908201526125f760a0830161231f565b60a082015260c0828101519082015260e08201516001600160401b0381111561261f57600080fd5b61262b86828501612365565b60e083015250949350505050565b60006020828403121561264b57600080fd5b8151611f9b81611ef5565b60006020828403121561266857600080fd5b81516001600160401b0381111561267e57600080fd5b611eed84828501612365565b602080825260189082015277496e76616c696420456d697474657220416464726573732160401b604082015260600190565b634e487b7160e01b600052601160045260246000fd5b81810381811115611b4c57611b4c6126bc565b80820180821115611b4c57611b4c6126bc565b60006020828403121561270a57600080fd5b5051919050565b6020808252602b908201527f496e73756666696369656e742066756e647320666f722063726f73732d63686160408201526a696e2064656c697665727960a81b606082015260800190565b60006020828403121561276e57600080fd5b8151611f9b81611fa2565b60f884901b6001600160f81b031916815260f083901b6001600160f01b031916600182015281516000906127b4816003850160208701612297565b91909101600301949350505050565b600063ffffffff821663ffffffff81036127df576127df6126bc565b60010192915050565b63ffffffff8416815260606020820152600061280760608301856122bb565b905060ff83166040830152949350505050565b60006020828403121561282c57600080fd5b8151611f9b81611f0d565b6020808252818101527f4f776e61626c653a2063616c6c6572206973206e6f7420746865206f776e6572604082015260600190565b6001600160a01b03871681526001600160401b038616602082015261ffff851660408201526060810184905263ffffffff8316608082015260c060a082018190526000906128bc908301846122bb565b98975050505050505050565b60008060008060008060008060006101208a8c0312156128e757600080fd5b60008a51905080995050600060208b0151905080985050600060408b0151905080975050600060608b0151905080965050600060808b0151905080955050600060a08b0151905080945050600060c08b0151905080935050600060e08b015190508092505060006101008b01519050809150509295985092959850929598565b61ffff9390931683526020830191909152604082015260600190565b6000806040838503121561299657600080fd5b505080516020909101519092909150565b6040815260006129ba60408301856122bb565b905060018060a01b03831660208301529392505050565b61ffff861681526001600160a01b038516602082015260a0604082018190526000906129ff908301866122bb565b606083019490945250608001529392505050565b60208152816020820152818360408301376000818301604090810191909152601f909201601f19160101919050565b600080600060608486031215612a5757600080fd5b83516001600160401b03811115612a6d57600080fd5b612a7986828701612435565b93505060208401518015158114612a8f57600080fd5b60408501519092506001600160401b03811115612aab57600080fd5b8401601f81018613612abc57600080fd5b612acb86825160208401612335565b9150509250925092565b6001600160401b038181168382160190811115611b4c57611b4c6126bc565b600080600080600060a08688031215612b0c57600080fd5b8551612b1781611ef5565b6020870151909550612b2881611ef5565b604087015160608801519195509350612b4081611fa2565b60809690960151949793965091949392915050565b600060208284031215612b6757600080fd5b611f9b8261230b56fe8be0079c531659141344cd1fd0a4f28419497f9722a3daafe3b4186f6b6457e0a2646970667358221220208d4b1e8333887d032c2b8f2a29eb1e8322e0fed9de6b89a51cdc48e5b97e2264736f6c634300081b0033",
  "devdoc": {
    "errors": {
      "SafeERC20FailedOperation(address)": [
        {
          "details": "An operation with an ERC-20 token failed."
        }
      ]
    },
    "kind": "dev",
    "methods": {},
    "version": 1
  },
  "userdoc": {
    "kind": "user",
    "methods": {
      "MESSAGE_TIME_OUT_SECONDS()": {
        "notice": "Message timeout in seconds: Time out needs to account for: - Finality time on source chain - Time for Wormhole validators to sign and make VAA available to relayers - Time to relay VAA to the target chain - Congestion on target chain leading to delayed inclusion of transaction in target chain Note that there is no way to alter this hard coded value. Including such a feature would require some governance structure and some minumum and maximum values."
      }
    },
    "version": 1
  },
  "storageLayout": {
    "storage": [
      {
        "astId": 595,
        "contract": "contracts/WormholeBridge.sol:WormholeBridge",
        "label": "_policy",
        "offset": 0,
        "slot": "0",
        "type": "t_address"
      },
      {
        "astId": 597,
        "contract": "contracts/WormholeBridge.sol:WormholeBridge",
        "label": "_newPolicy",
        "offset": 0,
        "slot": "1",
        "type": "t_address"
      },
      {
        "astId": 732,
        "contract": "contracts/WormholeBridge.sol:WormholeBridge",
        "label": "NONCE",
        "offset": 20,
        "slot": "1",
        "type": "t_uint32"
      },
      {
        "astId": 741,
        "contract": "contracts/WormholeBridge.sol:WormholeBridge",
        "label": "minSequence",
        "offset": 24,
        "slot": "1",
        "type": "t_uint64"
      },
      {
        "astId": 757,
        "contract": "contracts/WormholeBridge.sol:WormholeBridge",
        "label": "circleIntegration",
        "offset": 0,
        "slot": "2",
        "type": "t_contract(ICircleIntegration)1959"
      },
      {
        "astId": 761,
        "contract": "contracts/WormholeBridge.sol:WormholeBridge",
        "label": "locked",
        "offset": 0,
        "slot": "3",
        "type": "t_mapping(t_address,t_uint256)"
      },
      {
        "astId": 765,
        "contract": "contracts/WormholeBridge.sol:WormholeBridge",
        "label": "registeredSenders",
        "offset": 0,
        "slot": "4",
        "type": "t_mapping(t_uint16,t_bytes32)"
      }
    ],
    "types": {
      "t_address": {
        "encoding": "inplace",
        "label": "address",
        "numberOfBytes": "20"
      },
      "t_bytes32": {
        "encoding": "inplace",
        "label": "bytes32",
        "numberOfBytes": "32"
      },
      "t_contract(ICircleIntegration)1959": {
        "encoding": "inplace",
        "label": "contract ICircleIntegration",
        "numberOfBytes": "20"
      },
      "t_mapping(t_address,t_uint256)": {
        "encoding": "mapping",
        "key": "t_address",
        "label": "mapping(address => uint256)",
        "numberOfBytes": "32",
        "value": "t_uint256"
      },
      "t_mapping(t_uint16,t_bytes32)": {
        "encoding": "mapping",
        "key": "t_uint16",
        "label": "mapping(uint16 => bytes32)",
        "numberOfBytes": "32",
        "value": "t_bytes32"
      },
      "t_uint16": {
        "encoding": "inplace",
        "label": "uint16",
        "numberOfBytes": "2"
      },
      "t_uint256": {
        "encoding": "inplace",
        "label": "uint256",
        "numberOfBytes": "32"
      },
      "t_uint32": {
        "encoding": "inplace",
        "label": "uint32",
        "numberOfBytes": "4"
      },
      "t_uint64": {
        "encoding": "inplace",
        "label": "uint64",
        "numberOfBytes": "8"
      }
    }
  }
}